{
  "contractName": "TokenFarm",
  "abi": [
    {
      "inputs": [
        {
          "internalType": "address",
          "name": "_dappTokenAddress",
          "type": "address"
        }
      ],
      "payable": false,
      "stateMutability": "nonpayable",
      "type": "constructor"
    },
    {
      "anonymous": false,
      "inputs": [
        {
          "indexed": true,
          "internalType": "address",
          "name": "previousOwner",
          "type": "address"
        },
        {
          "indexed": true,
          "internalType": "address",
          "name": "newOwner",
          "type": "address"
        }
      ],
      "name": "OwnershipTransferred",
      "type": "event"
    },
    {
      "constant": true,
      "inputs": [],
      "name": "dappToken",
      "outputs": [
        {
          "internalType": "contract IERC20",
          "name": "",
          "type": "address"
        }
      ],
      "payable": false,
      "stateMutability": "view",
      "type": "function"
    },
    {
      "constant": true,
      "inputs": [],
      "name": "intrestRate",
      "outputs": [
        {
          "internalType": "uint96",
          "name": "",
          "type": "uint96"
        }
      ],
      "payable": false,
      "stateMutability": "view",
      "type": "function"
    },
    {
      "constant": true,
      "inputs": [],
      "name": "name",
      "outputs": [
        {
          "internalType": "string",
          "name": "",
          "type": "string"
        }
      ],
      "payable": false,
      "stateMutability": "view",
      "type": "function"
    },
    {
      "constant": true,
      "inputs": [],
      "name": "owner",
      "outputs": [
        {
          "internalType": "address",
          "name": "",
          "type": "address"
        }
      ],
      "payable": false,
      "stateMutability": "view",
      "type": "function"
    },
    {
      "constant": false,
      "inputs": [],
      "name": "renounceOwnership",
      "outputs": [],
      "payable": false,
      "stateMutability": "nonpayable",
      "type": "function"
    },
    {
      "constant": true,
      "inputs": [
        {
          "internalType": "address",
          "name": "",
          "type": "address"
        }
      ],
      "name": "stakingBalance",
      "outputs": [
        {
          "internalType": "uint256",
          "name": "balance",
          "type": "uint256"
        },
        {
          "internalType": "uint256",
          "name": "lastUpdated",
          "type": "uint256"
        }
      ],
      "payable": false,
      "stateMutability": "view",
      "type": "function"
    },
    {
      "constant": false,
      "inputs": [
        {
          "internalType": "address",
          "name": "newOwner",
          "type": "address"
        }
      ],
      "name": "transferOwnership",
      "outputs": [],
      "payable": false,
      "stateMutability": "nonpayable",
      "type": "function"
    },
    {
      "constant": false,
      "inputs": [
        {
          "internalType": "uint96",
          "name": "_intrestRate",
          "type": "uint96"
        }
      ],
      "name": "setIntrestRate",
      "outputs": [],
      "payable": false,
      "stateMutability": "nonpayable",
      "type": "function"
    },
    {
      "constant": false,
      "inputs": [
        {
          "internalType": "uint256",
          "name": "_amount",
          "type": "uint256"
        },
        {
          "internalType": "address",
          "name": "token",
          "type": "address"
        }
      ],
      "name": "stakeTokens",
      "outputs": [],
      "payable": true,
      "stateMutability": "payable",
      "type": "function"
    },
    {
      "constant": false,
      "inputs": [
        {
          "internalType": "address",
          "name": "token",
          "type": "address"
        }
      ],
      "name": "unstakeTokens",
      "outputs": [],
      "payable": true,
      "stateMutability": "payable",
      "type": "function"
    },
    {
      "constant": true,
      "inputs": [
        {
          "internalType": "address",
          "name": "user",
          "type": "address"
        }
      ],
      "name": "getUserTotalReward",
      "outputs": [
        {
          "internalType": "uint256",
          "name": "",
          "type": "uint256"
        }
      ],
      "payable": false,
      "stateMutability": "view",
      "type": "function"
    },
    {
      "constant": false,
      "inputs": [
        {
          "internalType": "address",
          "name": "user",
          "type": "address"
        }
      ],
      "name": "reward",
      "outputs": [],
      "payable": false,
      "stateMutability": "nonpayable",
      "type": "function"
    }
  ],
  "bytecode": "0x60806040526040518060400160405280601081526020017f5a656e6f6620546f6b656e204661726d00000000000000000000000000000000815250600190805190602001906200005192919062000196565b503480156200005f57600080fd5b506040516200138d3803806200138d833981810160405260208110156200008557600080fd5b81019080805190602001909291905050506000620000a86200018e60201b60201c565b9050806000806101000a81548173ffffffffffffffffffffffffffffffffffffffff021916908373ffffffffffffffffffffffffffffffffffffffff1602179055508073ffffffffffffffffffffffffffffffffffffffff16600073ffffffffffffffffffffffffffffffffffffffff167f8be0079c531659141344cd1fd0a4f28419497f9722a3daafe3b4186f6b6457e060405160405180910390a35080600260006101000a81548173ffffffffffffffffffffffffffffffffffffffff021916908373ffffffffffffffffffffffffffffffffffffffff1602179055505062000245565b600033905090565b828054600181600116156101000203166002900490600052602060002090601f016020900481019282601f10620001d957805160ff19168380011785556200020a565b828001600101855582156200020a579182015b8281111562000209578251825591602001919060010190620001ec565b5b5090506200021991906200021d565b5090565b6200024291905b808211156200023e57600081600090555060010162000224565b5090565b90565b61113880620002556000396000f3fe6080604052600436106100a75760003560e01c80635eb186f8116100645780635eb186f8146102e85780636353586b1461033f578063715018a6146103905780638da5cb5b146103a7578063a59acbb5146103fe578063f2fde38b14610445576100a7565b806306fdde03146100ac5780630bea440d1461013c578063273051791461018a5780632d1ad8b8146101ef57806345bc78ab1461023357806358ca7ac41461029f575b600080fd5b3480156100b857600080fd5b506100c1610496565b6040518080602001828103825283818151815260200191508051906020019080838360005b838110156101015780820151818401526020810190506100e6565b50505050905090810190601f16801561012e5780820380516001836020036101000a031916815260200191505b509250505060405180910390f35b6101886004803603604081101561015257600080fd5b8101908080359060200190929190803573ffffffffffffffffffffffffffffffffffffffff169060200190929190505050610534565b005b34801561019657600080fd5b506101d9600480360360208110156101ad57600080fd5b81019080803573ffffffffffffffffffffffffffffffffffffffff169060200190929190505050610754565b6040518082815260200191505060405180910390f35b6102316004803603602081101561020557600080fd5b81019080803573ffffffffffffffffffffffffffffffffffffffff1690602001909291905050506107a0565b005b34801561023f57600080fd5b506102826004803603602081101561025657600080fd5b81019080803573ffffffffffffffffffffffffffffffffffffffff169060200190929190505050610a86565b604051808381526020018281526020019250505060405180910390f35b3480156102ab57600080fd5b506102e6600480360360208110156102c257600080fd5b8101908080356bffffffffffffffffffffffff169060200190929190505050610aaa565b005b3480156102f457600080fd5b506102fd610ba7565b604051808273ffffffffffffffffffffffffffffffffffffffff1673ffffffffffffffffffffffffffffffffffffffff16815260200191505060405180910390f35b34801561034b57600080fd5b5061038e6004803603602081101561036257600080fd5b81019080803573ffffffffffffffffffffffffffffffffffffffff169060200190929190505050610bcd565b005b34801561039c57600080fd5b506103a5610ccd565b005b3480156103b357600080fd5b506103bc610e55565b604051808273ffffffffffffffffffffffffffffffffffffffff1673ffffffffffffffffffffffffffffffffffffffff16815260200191505060405180910390f35b34801561040a57600080fd5b50610413610e7e565b60405180826bffffffffffffffffffffffff166bffffffffffffffffffffffff16815260200191505060405180910390f35b34801561045157600080fd5b506104946004803603602081101561046857600080fd5b81019080803573ffffffffffffffffffffffffffffffffffffffff169060200190929190505050610e9c565b005b60018054600181600116156101000203166002900480601f01602080910402602001604051908101604052809291908181526020018280546001816001161561010002031660029004801561052c5780601f106105015761010080835404028352916020019161052c565b820191906000526020600020905b81548152906001019060200180831161050f57829003601f168201915b505050505081565b600082116105aa576040517f08c379a00000000000000000000000000000000000000000000000000000000081526004018080602001828103825260128152602001807f616d6f756e742063616e6e6f742062652030000000000000000000000000000081525060200191505060405180910390fd5b8073ffffffffffffffffffffffffffffffffffffffff166323b872dd3330856040518463ffffffff1660e01b8152600401808473ffffffffffffffffffffffffffffffffffffffff1673ffffffffffffffffffffffffffffffffffffffff1681526020018373ffffffffffffffffffffffffffffffffffffffff1673ffffffffffffffffffffffffffffffffffffffff1681526020018281526020019350505050602060405180830381600087803b15801561066557600080fd5b505af1158015610679573d6000803e3d6000fd5b505050506040513d602081101561068f57600080fd5b810190808051906020019092919050505050604051806040016040528083600360003373ffffffffffffffffffffffffffffffffffffffff1673ffffffffffffffffffffffffffffffffffffffff1681526020019081526020016000206000015401815260200142815250600360003373ffffffffffffffffffffffffffffffffffffffff1673ffffffffffffffffffffffffffffffffffffffff16815260200190815260200160002060008201518160000155602082015181600101559050505050565b6000600360008373ffffffffffffffffffffffffffffffffffffffff1673ffffffffffffffffffffffffffffffffffffffff168152602001908152602001600020600001549050919050565b6000600360003373ffffffffffffffffffffffffffffffffffffffff1673ffffffffffffffffffffffffffffffffffffffff168152602001908152602001600020600001549050808273ffffffffffffffffffffffffffffffffffffffff166370a08231306040518263ffffffff1660e01b8152600401808273ffffffffffffffffffffffffffffffffffffffff1673ffffffffffffffffffffffffffffffffffffffff16815260200191505060206040518083038186803b15801561086557600080fd5b505afa158015610879573d6000803e3d6000fd5b505050506040513d602081101561088f57600080fd5b810190808051906020019092919050505010156108f7576040517f08c379a000000000000000000000000000000000000000000000000000000000815260040180806020018281038252602c8152602001806110d8602c913960400191505060405180910390fd5b6000811161096d576040517f08c379a000000000000000000000000000000000000000000000000000000000815260040180806020018281038252601b8152602001807f7374616b696e672062616c616e63652063616e6e6f742062652030000000000081525060200191505060405180910390fd5b8173ffffffffffffffffffffffffffffffffffffffff1663a9059cbb33836040518363ffffffff1660e01b8152600401808373ffffffffffffffffffffffffffffffffffffffff1673ffffffffffffffffffffffffffffffffffffffff16815260200182815260200192505050602060405180830381600087803b1580156109f457600080fd5b505af1158015610a08573d6000803e3d6000fd5b505050506040513d6020811015610a1e57600080fd5b810190808051906020019092919050505050600360008373ffffffffffffffffffffffffffffffffffffffff1673ffffffffffffffffffffffffffffffffffffffff168152602001908152602001600020600080820160009055600182016000905550505050565b60036020528060005260406000206000915090508060000154908060010154905082565b610ab26110a9565b73ffffffffffffffffffffffffffffffffffffffff166000809054906101000a900473ffffffffffffffffffffffffffffffffffffffff1673ffffffffffffffffffffffffffffffffffffffff1614610b73576040517f08c379a00000000000000000000000000000000000000000000000000000000081526004018080602001828103825260208152602001807f4f776e61626c653a2063616c6c6572206973206e6f7420746865206f776e657281525060200191505060405180910390fd5b80600460006101000a8154816bffffffffffffffffffffffff02191690836bffffffffffffffffffffffff16021790555050565b600260009054906101000a900473ffffffffffffffffffffffffffffffffffffffff1681565b6000600460009054906101000a90046bffffffffffffffffffffffff166bffffffffffffffffffffffff16600360008473ffffffffffffffffffffffffffffffffffffffff1673ffffffffffffffffffffffffffffffffffffffff1681526020019081526020016000206000015402600360008473ffffffffffffffffffffffffffffffffffffffff1673ffffffffffffffffffffffffffffffffffffffff1681526020019081526020016000206000015401905080600360008473ffffffffffffffffffffffffffffffffffffffff1673ffffffffffffffffffffffffffffffffffffffff168152602001908152602001600020600001819055505050565b610cd56110a9565b73ffffffffffffffffffffffffffffffffffffffff166000809054906101000a900473ffffffffffffffffffffffffffffffffffffffff1673ffffffffffffffffffffffffffffffffffffffff1614610d96576040517f08c379a00000000000000000000000000000000000000000000000000000000081526004018080602001828103825260208152602001807f4f776e61626c653a2063616c6c6572206973206e6f7420746865206f776e657281525060200191505060405180910390fd5b600073ffffffffffffffffffffffffffffffffffffffff166000809054906101000a900473ffffffffffffffffffffffffffffffffffffffff1673ffffffffffffffffffffffffffffffffffffffff167f8be0079c531659141344cd1fd0a4f28419497f9722a3daafe3b4186f6b6457e060405160405180910390a360008060006101000a81548173ffffffffffffffffffffffffffffffffffffffff021916908373ffffffffffffffffffffffffffffffffffffffff160217905550565b60008060009054906101000a900473ffffffffffffffffffffffffffffffffffffffff16905090565b600460009054906101000a90046bffffffffffffffffffffffff1681565b610ea46110a9565b73ffffffffffffffffffffffffffffffffffffffff166000809054906101000a900473ffffffffffffffffffffffffffffffffffffffff1673ffffffffffffffffffffffffffffffffffffffff1614610f65576040517f08c379a00000000000000000000000000000000000000000000000000000000081526004018080602001828103825260208152602001807f4f776e61626c653a2063616c6c6572206973206e6f7420746865206f776e657281525060200191505060405180910390fd5b600073ffffffffffffffffffffffffffffffffffffffff168173ffffffffffffffffffffffffffffffffffffffff161415610feb576040517f08c379a00000000000000000000000000000000000000000000000000000000081526004018080602001828103825260268152602001806110b26026913960400191505060405180910390fd5b8073ffffffffffffffffffffffffffffffffffffffff166000809054906101000a900473ffffffffffffffffffffffffffffffffffffffff1673ffffffffffffffffffffffffffffffffffffffff167f8be0079c531659141344cd1fd0a4f28419497f9722a3daafe3b4186f6b6457e060405160405180910390a3806000806101000a81548173ffffffffffffffffffffffffffffffffffffffff021916908373ffffffffffffffffffffffffffffffffffffffff16021790555050565b60003390509056fe4f776e61626c653a206e6577206f776e657220697320746865207a65726f2061646472657373546f6b656e20417661696c61626c6520696e20736d61727420636f6e7472616374206e6f7420656e6f756768a265627a7a72315820187671707a92853c260b91ca1ca775c06a4689e6a4276b204b5c31630d69eb2764736f6c63430005110032",
  "source": "pragma solidity ^0.5.0;\r\n\r\nimport \"./IERC20.sol\";\r\nimport \"./Ownable.sol\";\r\n\r\n// SPDX-License-Identifier: MIT\r\ncontract TokenFarm is  Ownable {\r\n    string public name = \"Zenof Token Farm\";\r\n    IERC20 public dappToken;\r\n\r\n\r\n    \r\n    struct UserStake {\r\n        uint256 balance;\r\n        uint256 lastUpdated;\r\n       \r\n    }\r\n    \r\n    // token > address\r\n    mapping(address => UserStake) public stakingBalance;\r\n    uint96 public intrestRate;\r\n   \r\n\r\n    constructor(address _dappTokenAddress) public {\r\n        dappToken = IERC20(_dappTokenAddress);\r\n    }\r\n\r\n \r\n    function setIntrestRate(uint96 _intrestRate)\r\n        public\r\n        onlyOwner\r\n    {\r\n        intrestRate = _intrestRate;\r\n    }\r\n\r\n    function stakeTokens(uint256 _amount, address token) public payable{\r\n        // Require amount greater than 0\r\n        require(_amount > 0, \"amount cannot be 0\");\r\n        \r\n            \r\n            IERC20(token).transferFrom(msg.sender, address(this), _amount);\r\n            \r\n            //check if user has a former stakers\r\n            \r\n           \r\n\r\n            stakingBalance[msg.sender] = UserStake({balance:stakingBalance[msg.sender].balance + _amount,lastUpdated:now});\r\n              \r\n           \r\n            \r\n        \r\n    }\r\n\r\n    // Unstaking Tokens (Withdraw)\r\n    function unstakeTokens(address token) public payable{\r\n        // Fetch staking balance\r\n        uint256 balance = stakingBalance[msg.sender].balance;\r\n        require(IERC20(token).balanceOf(address(this)) >= balance, \"Token Available in smart contract not enough\");\r\n        require(balance > 0, \"staking balance cannot be 0\");\r\n        IERC20(token).transfer(msg.sender, balance);\r\n        delete stakingBalance[token];\r\n       \r\n    }\r\n\r\n    function getUserTotalReward(address user) public view returns (uint256) {\r\n      \r\n        return (stakingBalance[user].balance);\r\n    }\r\n\r\n    \r\n     function reward(address user) public {\r\n         // confirm timeStamp of user\r\n      \r\n        // check for emmsiion rate date \r\n        \r\n        uint256 accReward = stakingBalance[user].balance  +  stakingBalance[user].balance * intrestRate;\r\n        \r\n        stakingBalance[user].balance = accReward;\r\n      \r\n    }\r\n   \r\n\r\n   \r\n\r\n\r\n    \r\n}\r\n\r\n\r\n",
  "sourcePath": "C:/my files/BlockChain Projects/Zenof/src/contracts/Farm.sol",
  "compiler": {
    "name": "solc",
    "version": "0.5.17+commit.d19bba13.Emscripten.clang"
  },
  "schemaVersion": "3.2.3",
  "updatedAt": "2021-01-09T04:38:38.436Z",
  "devdoc": {
    "methods": {
      "owner()": {
        "details": "Returns the address of the current owner."
      },
      "renounceOwnership()": {
        "details": "Leaves the contract without owner. It will not be possible to call `onlyOwner` functions anymore. Can only be called by the current owner.      * NOTE: Renouncing ownership will leave the contract without an owner, thereby removing any functionality that is only available to the owner."
      },
      "transferOwnership(address)": {
        "details": "Transfers ownership of the contract to a new account (`newOwner`). Can only be called by the current owner."
      }
    }
  },
  "userdoc": {
    "methods": {}
  }
}